S0180000556E69745F375F53656374696F6E5F312E7372656312
S11300000C942A000C9434000C9434000C943400A6
S11300100C9434000C9434000C9434000C9434008C
S11300200C9434000C9434000C9434000C9434007C
S11300300C9434000C9434000C9434000C9434006C
S11300400C9434000C9434000C9434000C9434005C
S11300500C94340011241FBECFE5D8E0DEBFCDBF21
S11300600E9436000C9478000C94000081B38E7FBB
S113007081BB81B3806F81BB81B3806881BB80E029
S113008090E0809B0BC0019683709078992324F4B0
S113009001978C6F9F6F01968099FECF009739F47A
S11300A022B32F7022BB22B32F7722BBEACF813039
S11300B0910539F422B3206222BB22B3206122BB12
S11300C0E0CF8230910551F422B32F7D22BB22B3BD
S11300D0206422BB22B32F7E22BBD3CF22B32F7B3B
S11300E022BB22B3206822BB22B3206122BBC9CF2A
S10700F0F894FFCFAE
S9030000FC
