S0110000496E746572727570742E7372656346
S11300000C942A000C944D000C9434000C9434008D
S11300100C9434000C9434000C9434000C9434008C
S11300200C9434000C9434000C9434000C9434007C
S11300300C9434000C9434000C9434000C9434006C
S11300400C9434000C9434000C9434000C9434005C
S11300500C94340011241FBECFE5D8E0DEBFCDBF21
S11300600E9436000C948E000C9400008AB38160C8
S11300708ABB8BB381608BBB81B38B7F81BB82B323
S1130080846082BB85B78D7F85BF85B7816085BF5E
S11300908BB780648BBF7894FFCF1F920F920FB6FB
S11300A00F9211242F938F939F93AF93BF93CF936A
S11300B0DF9300D000D0CDB7DEB79BB381E08927B2
S11300C08BBB19821A821B821C820BC089819A8184
S11300D0AB81BC810196A11DB11D89839A83AB8339
S11300E0BC8389819A81AB81BC818032914AA740CB
S11300F0B10560F39BB381E089278BBB0F900F9010
S11301000F900F90DF91CF91BF91AF919F918F91FD
S11301102F910F900FBE0F901F901895F894FFCF5A
S9030000FC
