:020000040800F2
:1000000090110020890000087D0000087D00000894
:100010007D0000087D0000087D00000880B483B0EA
:1000200000AF00237B60124B1B68114A43F00403AE
:100030001360104B1B680F4A23F4700313600D4BC1
:100040001B680C4A43F4001313600B4B1B680A4AED
:1000500083F40053136000237B6002E07B6801336C
:100060007B607B684CF24F329342F7DDEDE700BFD7
:1000700018100240040801400C08014080B500AF90
:1000800000F002F800BF80BD80B588B000AF194A0B
:10009000194BD31ABB60194BFB61174BBB61002393
:1000A0007B610AE0FA69131DFB61BB69191DB96127
:1000B00012681A607B6901337B617B69BA689A4276
:1000C000F0D80F4A0F4BD31A7B600E4B3B610023D5
:1000D000FB6007E03B691A1D3A6100221A60FB6869
:1000E0000133FB60FB687A689A42F3D8FFF796FF0A
:1000F000FEE700BF0000002000000020080100080B
:08010000900100200000002026
:0400000508000000EF
:00000001FF
