S0180000556E69745F375F53656374696F6E5F312E7372656312
S11300000C942A000C9434000C9434000C943400A6
S11300100C9434000C9434000C9434000C9434008C
S11300200C9434000C9434000C9434000C9434007C
S11300300C9434000C9434000C9434000C9434006C
S11300400C9434000C9434000C9434000C9434005C
S11300500C94340011241FBECFE5D8E0DEBFCDBF21
S11300600E9436000C9483000C940000CF93DF931D
S113007000D01F92CDB7DEB78FEF84BB81B38E7FE4
S113008081BB19821A82809B0CC085B38F7085BB9B
S113009089818F5F89838981843608F019828099E8
S11300A0FECF29814DEC249F812D112486958695C0
S11300B08695880F982F990F990F890F281B2A83EB
S11300C02A8180E1289F90011124246025BB8FE1BF
S11300D09EE40197F1F700C000008981849F812D7F
S11300E011248695869586958B838B8120E1829F4A
S11300F0C0011124886085BB8FE19EE40197F1F76C
S10D010000C00000C0CFF894FFCF48
S9030000FC
