:020000040800F2
:100000000C000020C5000008EF000008EF00000809
:10001000EF000008EF000008EF00000800000000FB
:10002000000000000000000000000000EF000008D9
:10003000EF00000800000000EF000008EF000008DB
:10004000EF000008EF000008EF000008EF000008D4
:10005000EF000008EF000008EF000008EF000008C4
:10006000EF00000880B483B000AF00237B60124B28
:100070001B68114A43F004031360104B1B680F4ABE
:1000800023F4700313600D4B1B680C4A43F40013F8
:1000900013600B4B1B680A4A83F400531360002360
:1000A0007B6002E07B6801337B607B684CF24F32FF
:1000B0009342F7DDEDE700BF18100240040801404D
:1000C0000C0801400B480C490C4A9142BCBF50F847
:1000D000043B41F8043BF8DB09480A498842BCBFAD
:1000E000002240F8042BF9DBFFF7BCFFFEE7FFF727
:1000F000E9BF000008010008000000200000002007
:08010000000000200C000020AB
:0400000508000000EF
:00000001FF
