:020000040800F2
:1000000000100020D9000008CD000008CD00000835
:10001000CD000008CD000008CD00000880B483B0FA
:1000200000AF254B1B68244A43F002031360224BA8
:100030001B68214A43F4C01313601F4B1B681E4A00
:1000400043F4806313601C4B1B681B4A43F420532A
:1000500013601A4B1B68194A43F080731360002326
:100060007B60174B1B68164A43F004031360144B64
:100070001B68134A43F004031360124B1B68114AB8
:1000800023F4700313600F4B1B680E4A43F40013F4
:1000900013600D4B1B680C4A83F40053136000235C
:1000A0007B6002E07B6801337B607B684CF24F32FF
:1000B0009342F7DDEDE700BF04100240001002405C
:1000C00018100240040801400C08014080B500AF40
:1000D00000F002F800BF80BD80B588B000AF194ABB
:1000E000194BD31ABB60194BFB61174BBB61002343
:1000F0007B610AE0FA69131DFB61BB69191DB961D7
:1001000012681A607B6901337B617B69BA689A4225
:10011000F0D80F4A0F4BD31A7B600E4B3B61002384
:10012000FB6007E03B691A1D3A6100221A60FB6818
:100130000133FB60FB687A689A42F3D8FFF76EFFE1
:10014000FEE700BF0000002000000020580100086A
:08015000000000200000002067
:0400000508000000EF
:00000001FF
