:100000000C942A000C9434000C9434000C943400AA
:100010000C9434000C9434000C9434000C94340090
:100020000C9434000C9434000C9434000C94340080
:100030000C9434000C9434000C9434000C94340070
:100040000C9434000C9434000C9434000C94340060
:100050000C94340011241FBECFE5D8E0DEBFCDBF25
:100060000E9436000C9469000C94000081B38E7FCE
:1000700081BB81B3806E81BB80E090E0809B0BC030
:10008000019683709078992324F401978C6F9F6F69
:1000900001968099FECF009721F422B32F7122BBE5
:1000A000EDCF8130910521F422B3206222BBE6CF4F
:1000B0008230910539F422B32F7D22BB22B3206414
:1000C00022BBDCCF22B32F7B22BB22B3206822BB12
:0600D000D5CFF894FFCF2C
:00000001FF
