:020000040800F2
:10000000005000207501000869010008690100081E
:10001000690100086901000869010008000000008A
:10002000000000000000000000000000690100085E
:10003000690100080000000069010008690100086A
:1000400069010008690100086901000869010008E8
:1000500069010008690100083B0100086901000806
:100060006901000880B400AF0C4B00221A600C4BF1
:100070001B680B4A43F0010313600A4B1B68094AD3
:1000800043F001031360084B1B68074A43F0400329
:10009000136000BFBD4680BC704700BF0800014030
:1000A000080401400004014000E100E080B400AF1A
:1000B000074B1B68064A43F004031360044B1B689C
:1000C000034A43F00103136000BFBD4680BC704784
:1000D0001810024080B400AF104B1B680F4A23F089
:1000E0000F0313600D4B1B680C4A43F008031360A9
:1000F0000B4B1B680A4A23F001031360094B1B6872
:10010000084A23F470031360064B1B68054A43F446
:100110000013136000BFBD4680BC7047000801405B
:100120000C0801400408014080B500AFFFF7BEFF96
:10013000FFF7D0FFFFF796FFFEE780B400AF084B54
:100140001B68074A83F400531360064B1B68054A7B
:1001500043F00103136000BFBD4680BC704700BF81
:100160000C0801401404014080B500AF00F002F813
:1001700000BF80BD80B588B000AF194A194BD31AB3
:10018000BB60194BFB61174BBB6100237B610AE02D
:10019000FA69131DFB61BB69191DB96112681A6008
:1001A0007B6901337B617B69BA689A42F0D80F4A58
:1001B0000F4BD31A7B600E4B3B610023FB6007E0C3
:1001C0003B691A1D3A6100221A60FB680133FB602B
:1001D000FB687A689A42F3D8FFF7A6FFFEE700BFF4
:1001E0000000002000000020F401000800000020B2
:0401F00000000020EB
:0400000508000000EF
:00000001FF
