:020000040800F2
:10000000081000202D01000821010008210100082E
:1000100021010008210100082101000880B483B0FB
:1000200000AF786002E07B68013B7B607B68002B5F
:10003000F9D100BF00BF0C37BD4680BC704780B40B
:1000400000AF034B1B68DBB21846BD4680BC70474F
:100050000808014080B483B000AF78607B68012B52
:1000600006D10A4B1B68094A43F40053136008E0A9
:100070007B68002B05D1054B1B68044A23F4005311
:10008000136000BF0C37BD4680BC70470C080140B0
:1000900080B400AF0F4B1B680E4A43F0040313609B
:1000A0000D4B1B680C4A23F4700313600A4B0A4A79
:1000B0001B681360094B1B68084A23F47003136024
:1000C000064B1B68054A43F02233136000BFBD4650
:1000D00080BC70471810024000080140040801402D
:1000E00080B500AFFFF7D4FFFFF7A9FF03460B4A27
:1000F00013600A4B1B68142293420AD30020FFF7B7
:10010000A9FF4CF25030FFF789FF0120FFF7A2FF53
:10011000EAE70120FFF79EFFE6E700BF00000020AE
:1001200080B500AF00F002F800BF80BD80B588B098
:1001300000AF194A194BD31ABB60194BFB61174B1F
:10014000BB6100237B610AE0FA69131DFB61BB6997
:10015000191DB96112681A607B6901337B617B6983
:10016000BA689A42F0D80F4A0F4BD31A7B600E4BF5
:100170003B610023FB6007E03B691A1D3A610022E6
:100180001A60FB680133FB60FB687A689A42F3D817
:10019000FFF7A6FFFEE700BF0800002000000020D8
:1001A000B001000808000020080000201400000032
:0801B0000A000000000000003D
:0400000508000000EF
:00000001FF
