:020000040800F2
:1000000000500020950100088901000889010008BE
:10001000890100088901000889010008000000002A
:10002000000000000000000000000000890100083E
:10003000890100080000000089010008890100080A
:100040008901000889010008890100088901000868
:100050008901000889010008890100088901000858
:100060008901000880B485B000AF78600023FB6090
:100070000BE00023BB6002E0BB680133BB60BB68E0
:10008000F92BF9DDFB680133FB60FB687A689A4263
:10009000EFDC00BF00BF1437BD4680BC704780B4A2
:1000A00000AF084B1B68074A43F004031360054B7D
:1000B0001B68044A43F00803136000BFBD4680BCC0
:1000C000704700BF1810024080B400AF134B0022ED
:1000D0001A60124B1B68114A43F040031360104B27
:1000E00000221A600E4B1B680D4A43F48003136014
:1000F0000C4B00221A600B4B1B680A4A43F010039A
:100100001360094B00221A60074B1B68064A43F430
:100110008013136000BFBD4680BC704700080140DB
:1001200004080140000C0140040C014080B500AF00
:10013000FFF7B5FFFFF7C8FF114B1B6803F0020381
:10014000002B0CD10F4B1B680E4A83F00203136087
:1001500000BF0B4B1B6803F00203002BF9D0084BC8
:100160001B6803F40053002B05D0064B1B68054A9F
:1001700083F40053136044F62060FFF773FFDBE75E
:10018000080801400C0C014080B500AF00F002F8F7
:1001900000BF80BD80B588B000AF194A194BD31A93
:1001A000BB60194BFB61174BBB6100237B610AE00D
:1001B000FA69131DFB61BB69191DB96112681A60E8
:1001C0007B6901337B617B69BA689A42F0D80F4A38
:1001D0000F4BD31A7B600E4B3B610023FB6007E0A3
:1001E0003B691A1D3A6100221A60FB680133FB600B
:1001F000FB687A689A42F3D8FFF798FFFEE700BFE2
:100200000000002000000020140200080000002070
:0402100000000020CA
:0400000508000000EF
:00000001FF
